{
  "_format": "hh3-artifact-1",
  "contractName": "StakingContract",
  "sourceName": "contracts/StakingContract.sol",
  "abi": [
    {
      "inputs": [
        {
          "internalType": "address",
          "name": "_stakingToken",
          "type": "address"
        },
        {
          "internalType": "address",
          "name": "_rewardToken",
          "type": "address"
        }
      ],
      "stateMutability": "nonpayable",
      "type": "constructor"
    },
    {
      "inputs": [
        {
          "internalType": "address",
          "name": "owner",
          "type": "address"
        }
      ],
      "name": "OwnableInvalidOwner",
      "type": "error"
    },
    {
      "inputs": [
        {
          "internalType": "address",
          "name": "account",
          "type": "address"
        }
      ],
      "name": "OwnableUnauthorizedAccount",
      "type": "error"
    },
    {
      "inputs": [],
      "name": "ReentrancyGuardReentrantCall",
      "type": "error"
    },
    {
      "inputs": [
        {
          "internalType": "address",
          "name": "token",
          "type": "address"
        }
      ],
      "name": "SafeERC20FailedOperation",
      "type": "error"
    },
    {
      "anonymous": false,
      "inputs": [
        {
          "indexed": true,
          "internalType": "address",
          "name": "previousOwner",
          "type": "address"
        },
        {
          "indexed": true,
          "internalType": "address",
          "name": "newOwner",
          "type": "address"
        }
      ],
      "name": "OwnershipTransferred",
      "type": "event"
    },
    {
      "anonymous": false,
      "inputs": [
        {
          "indexed": false,
          "internalType": "uint256",
          "name": "rewardAmount",
          "type": "uint256"
        },
        {
          "indexed": false,
          "internalType": "uint256",
          "name": "duration",
          "type": "uint256"
        },
        {
          "indexed": false,
          "internalType": "uint256",
          "name": "rewardRate",
          "type": "uint256"
        }
      ],
      "name": "RewardNotified",
      "type": "event"
    },
    {
      "anonymous": false,
      "inputs": [
        {
          "indexed": true,
          "internalType": "address",
          "name": "user",
          "type": "address"
        },
        {
          "indexed": false,
          "internalType": "uint256",
          "name": "reward",
          "type": "uint256"
        }
      ],
      "name": "RewardPaid",
      "type": "event"
    },
    {
      "anonymous": false,
      "inputs": [
        {
          "indexed": true,
          "internalType": "address",
          "name": "user",
          "type": "address"
        },
        {
          "indexed": false,
          "internalType": "uint256",
          "name": "amount",
          "type": "uint256"
        }
      ],
      "name": "Staked",
      "type": "event"
    },
    {
      "anonymous": false,
      "inputs": [
        {
          "indexed": true,
          "internalType": "address",
          "name": "user",
          "type": "address"
        },
        {
          "indexed": false,
          "internalType": "uint256",
          "name": "amount",
          "type": "uint256"
        }
      ],
      "name": "Withdrawn",
      "type": "event"
    },
    {
      "inputs": [],
      "name": "PRECISION",
      "outputs": [
        {
          "internalType": "uint256",
          "name": "",
          "type": "uint256"
        }
      ],
      "stateMutability": "view",
      "type": "function"
    },
    {
      "inputs": [
        {
          "internalType": "address",
          "name": "",
          "type": "address"
        }
      ],
      "name": "balanceOf",
      "outputs": [
        {
          "internalType": "uint256",
          "name": "",
          "type": "uint256"
        }
      ],
      "stateMutability": "view",
      "type": "function"
    },
    {
      "inputs": [],
      "name": "claimReward",
      "outputs": [],
      "stateMutability": "nonpayable",
      "type": "function"
    },
    {
      "inputs": [
        {
          "internalType": "address",
          "name": "account",
          "type": "address"
        }
      ],
      "name": "earned",
      "outputs": [
        {
          "internalType": "uint256",
          "name": "",
          "type": "uint256"
        }
      ],
      "stateMutability": "view",
      "type": "function"
    },
    {
      "inputs": [],
      "name": "lastTimeRewardApplicable",
      "outputs": [
        {
          "internalType": "uint256",
          "name": "",
          "type": "uint256"
        }
      ],
      "stateMutability": "view",
      "type": "function"
    },
    {
      "inputs": [],
      "name": "lastUpdateTime",
      "outputs": [
        {
          "internalType": "uint256",
          "name": "",
          "type": "uint256"
        }
      ],
      "stateMutability": "view",
      "type": "function"
    },
    {
      "inputs": [
        {
          "internalType": "uint256",
          "name": "rewardAmount",
          "type": "uint256"
        },
        {
          "internalType": "uint256",
          "name": "duration",
          "type": "uint256"
        }
      ],
      "name": "notifyRewardAmount",
      "outputs": [],
      "stateMutability": "nonpayable",
      "type": "function"
    },
    {
      "inputs": [],
      "name": "owner",
      "outputs": [
        {
          "internalType": "address",
          "name": "",
          "type": "address"
        }
      ],
      "stateMutability": "view",
      "type": "function"
    },
    {
      "inputs": [],
      "name": "periodFinish",
      "outputs": [
        {
          "internalType": "uint256",
          "name": "",
          "type": "uint256"
        }
      ],
      "stateMutability": "view",
      "type": "function"
    },
    {
      "inputs": [],
      "name": "renounceOwnership",
      "outputs": [],
      "stateMutability": "nonpayable",
      "type": "function"
    },
    {
      "inputs": [],
      "name": "rewardPerToken",
      "outputs": [
        {
          "internalType": "uint256",
          "name": "",
          "type": "uint256"
        }
      ],
      "stateMutability": "view",
      "type": "function"
    },
    {
      "inputs": [],
      "name": "rewardPerTokenStored",
      "outputs": [
        {
          "internalType": "uint256",
          "name": "",
          "type": "uint256"
        }
      ],
      "stateMutability": "view",
      "type": "function"
    },
    {
      "inputs": [],
      "name": "rewardRate",
      "outputs": [
        {
          "internalType": "uint256",
          "name": "",
          "type": "uint256"
        }
      ],
      "stateMutability": "view",
      "type": "function"
    },
    {
      "inputs": [],
      "name": "rewardToken",
      "outputs": [
        {
          "internalType": "contract IERC20",
          "name": "",
          "type": "address"
        }
      ],
      "stateMutability": "view",
      "type": "function"
    },
    {
      "inputs": [
        {
          "internalType": "address",
          "name": "",
          "type": "address"
        }
      ],
      "name": "rewards",
      "outputs": [
        {
          "internalType": "uint256",
          "name": "",
          "type": "uint256"
        }
      ],
      "stateMutability": "view",
      "type": "function"
    },
    {
      "inputs": [
        {
          "internalType": "uint256",
          "name": "amount",
          "type": "uint256"
        }
      ],
      "name": "stake",
      "outputs": [],
      "stateMutability": "nonpayable",
      "type": "function"
    },
    {
      "inputs": [],
      "name": "stakingToken",
      "outputs": [
        {
          "internalType": "contract IERC20",
          "name": "",
          "type": "address"
        }
      ],
      "stateMutability": "view",
      "type": "function"
    },
    {
      "inputs": [],
      "name": "totalStaked",
      "outputs": [
        {
          "internalType": "uint256",
          "name": "",
          "type": "uint256"
        }
      ],
      "stateMutability": "view",
      "type": "function"
    },
    {
      "inputs": [
        {
          "internalType": "address",
          "name": "newOwner",
          "type": "address"
        }
      ],
      "name": "transferOwnership",
      "outputs": [],
      "stateMutability": "nonpayable",
      "type": "function"
    },
    {
      "inputs": [
        {
          "internalType": "address",
          "name": "",
          "type": "address"
        }
      ],
      "name": "userRewardPerTokenPaid",
      "outputs": [
        {
          "internalType": "uint256",
          "name": "",
          "type": "uint256"
        }
      ],
      "stateMutability": "view",
      "type": "function"
    },
    {
      "inputs": [
        {
          "internalType": "uint256",
          "name": "amount",
          "type": "uint256"
        }
      ],
      "name": "withdraw",
      "outputs": [],
      "stateMutability": "nonpayable",
      "type": "function"
    }
  ],
  "bytecode": "0x60c060405234801561000f575f5ffd5b50604051610fe6380380610fe683398101604081905261002e91610204565b60015f55338061005857604051631e4fbdf760e01b81525f60048201526024015b60405180910390fd5b61006181610198565b506001600160a01b0382166100b85760405162461bcd60e51b815260206004820152601d60248201527f5374616b696e6720616464726573732063616e7420626520656d707479000000604482015260640161004f565b6001600160a01b03811661010e5760405162461bcd60e51b815260206004820152601c60248201527f52657761726420616464726573732063616e7420626520656d70747900000000604482015260640161004f565b806001600160a01b0316826001600160a01b0316036101815760405162461bcd60e51b815260206004820152602960248201527f5374616b696e6720616e6420526577617264206164647265737365732063616e604482015268742062652073616d6560b81b606482015260840161004f565b6001600160a01b039182166080521660a052610235565b600180546001600160a01b038381166001600160a01b0319831681179093556040519116919082907f8be0079c531659141344cd1fd0a4f28419497f9722a3daafe3b4186f6b6457e0905f90a35050565b80516001600160a01b03811681146101ff575f5ffd5b919050565b5f5f60408385031215610215575f5ffd5b61021e836101e9565b915061022c602084016101e9565b90509250929050565b60805160a051610d746102725f395f81816102b701528181610453015261092701525f81816101ce0152818161070a015261081a0152610d745ff3fe608060405234801561000f575f5ffd5b5060043610610131575f3560e01c80638b876347116100b4578063c8f33c9111610079578063c8f33c911461027c578063cd3daf9d14610285578063df136d651461028d578063ebe2b12b14610296578063f2fde38b1461029f578063f7c618c1146102b2575f5ffd5b80638b876347146102225780638da5cb5b14610241578063a694fc3a14610252578063aaf5eb6814610265578063b88a802f14610274575f5ffd5b8063715018a6116100fa578063715018a6146101c157806372f702f3146101c95780637b0a47ee1461020857806380faa57d14610211578063817b1cd214610219575f5ffd5b80628cc262146101355780630700037d1461015b578063246132f91461017a5780632e1a7d4d1461018f57806370a08231146101a2575b5f5ffd5b610148610143366004610c53565b6102d9565b6040519081526020015b60405180910390f35b610148610169366004610c53565b60096020525f908152604090205481565b61018d610188366004610c80565b610354565b005b61018d61019d366004610ca0565b6105c2565b6101486101b0366004610c53565b60036020525f908152604090205481565b61018d610773565b6101f07f000000000000000000000000000000000000000000000000000000000000000081565b6040516001600160a01b039091168152602001610152565b61014860045481565b610148610786565b61014860025481565b610148610230366004610c53565b60086020525f908152604090205481565b6001546001600160a01b03166101f0565b61018d610260366004610ca0565b61079d565b610148670de0b6b3a764000081565b61018d6108af565b61014860065481565b610148610995565b61014860055481565b61014860075481565b61018d6102ad366004610c53565b610a09565b6101f07f000000000000000000000000000000000000000000000000000000000000000081565b6001600160a01b0381165f908152600960209081526040808320546008909252822054670de0b6b3a76400009061030e610995565b6103189190610ccb565b6001600160a01b0385165f9081526003602052604090205461033a9190610cde565b6103449190610cf5565b61034e9190610d14565b92915050565b61035c610a43565b5f81116103a75760405162461bcd60e51b815260206004820152601460248201527304475726174696f6e206d757374206265203e20360641b60448201526064015b60405180910390fd5b5f82116103f65760405162461bcd60e51b815260206004820152601960248201527f52657761726420616d6f756e74206d757374206265203e203000000000000000604482015260640161039e565b6103ff5f610a70565b600754429081101561043c575f8160075461041a9190610ccb565b90505f6004548261042b9190610cde565b90506104378186610d14565b945050505b6040516370a0823160e01b81523060048201525f907f00000000000000000000000000000000000000000000000000000000000000006001600160a01b0316906370a0823190602401602060405180830381865afa1580156104a0573d5f5f3e3d5ffd5b505050506040513d601f19601f820116820180604052508101906104c49190610d27565b9050838110156105165760405162461bcd60e51b815260206004820152601f60248201527f4e6f7420656e6f7567682072657761726420746f6b656e732066756e64656400604482015260640161039e565b6105208385610cf5565b60048190556105675760405162461bcd60e51b81526020600482015260136024820152725265776172642072617465206973207a65726f60681b604482015260640161039e565b60068290556105768383610d14565b600755600454604080518681526020810186905280820192909252517f56975044acf0792e334503bce63910412bb93d05e71a05d318d554a180143dfe9181900360600190a150505050565b6105ca610acb565b5f811161062a5760405162461bcd60e51b815260206004820152602860248201527f576974686472617720616d6f756e742073686f756c6420626520677265617465604482015267072207468616e20360c41b606482015260840161039e565b335f908152600360205260409020548111156106b85760405162461bcd60e51b815260206004820152604160248201527f576974686472617720616d6f756e742073686f756c64206265206c657373207460448201527f68616e206f7220657175616c20746f20617661696c61626c652062616c616e636064820152606560f81b608482015260a40161039e565b6106c133610a70565b335f90815260036020526040812080548392906106df908490610ccb565b925050819055508060025f8282546106f79190610ccb565b9091555061073190506001600160a01b037f0000000000000000000000000000000000000000000000000000000000000000163383610af3565b60405181815233907f7084f5476618d8e60b11ef0d7d3f06914655adb8793e28ff7f018d4c76d505d5906020015b60405180910390a261077060015f55565b50565b61077b610a43565b6107845f610b57565b565b5f60075442101561079657504290565b5060075490565b6107a5610acb565b5f81116108045760405162461bcd60e51b815260206004820152602760248201527f5374616b696e6720616d6f756e742073686f756c6420626520677265617465726044820152660207468616e20360cc1b606482015260840161039e565b61080d33610a70565b6108426001600160a01b037f000000000000000000000000000000000000000000000000000000000000000016333084610ba8565b335f9081526003602052604081208054839290610860908490610d14565b925050819055508060025f8282546108789190610d14565b909155505060405181815233907f9e71bc8eea02a63969f509818f2dafb9254532904319f9dbda79b67bd34a5f3d9060200161075f565b6108b7610acb565b6108c033610a70565b335f90815260096020526040902054806109125760405162461bcd60e51b81526020600482015260136024820152724e6f207265776172647320746f20636c61696d60681b604482015260640161039e565b335f81815260096020526040812055610956907f00000000000000000000000000000000000000000000000000000000000000006001600160a01b03169083610af3565b60405181815233907fe2403640ba68fed3a2f88b7557551d1993f84b99bb10ff833f0cf8db0c5e04869060200160405180910390a25061078460015f55565b5f6002545f036109a6575060055490565b5f6006546109b2610786565b6109bc9190610ccb565b90505f600454826109cd9190610cde565b90505f600254670de0b6b3a7640000836109e79190610cde565b6109f19190610cf5565b905080600554610a019190610d14565b935050505090565b610a11610a43565b6001600160a01b038116610a3a57604051631e4fbdf760e01b81525f600482015260240161039e565b61077081610b57565b6001546001600160a01b031633146107845760405163118cdaa760e01b815233600482015260240161039e565b610a78610995565b600555610a83610786565b6006556001600160a01b0381161561077057610a9e816102d9565b6001600160a01b0382165f9081526009602090815260408083209390935560055460089091529190205550565b60025f5403610aed57604051633ee5aeb560e01b815260040160405180910390fd5b60025f55565b6040516001600160a01b03838116602483015260448201839052610b5291859182169063a9059cbb906064015b604051602081830303815290604052915060e01b6020820180516001600160e01b038381831617835250505050610be7565b505050565b600180546001600160a01b038381166001600160a01b0319831681179093556040519116919082907f8be0079c531659141344cd1fd0a4f28419497f9722a3daafe3b4186f6b6457e0905f90a35050565b6040516001600160a01b038481166024830152838116604483015260648201839052610be19186918216906323b872dd90608401610b20565b50505050565b5f5f60205f8451602086015f885af180610c06576040513d5f823e3d81fd5b50505f513d91508115610c1d578060011415610c2a565b6001600160a01b0384163b155b15610be157604051635274afe760e01b81526001600160a01b038516600482015260240161039e565b5f60208284031215610c63575f5ffd5b81356001600160a01b0381168114610c79575f5ffd5b9392505050565b5f5f60408385031215610c91575f5ffd5b50508035926020909101359150565b5f60208284031215610cb0575f5ffd5b5035919050565b634e487b7160e01b5f52601160045260245ffd5b8181038181111561034e5761034e610cb7565b808202811582820484141761034e5761034e610cb7565b5f82610d0f57634e487b7160e01b5f52601260045260245ffd5b500490565b8082018082111561034e5761034e610cb7565b5f60208284031215610d37575f5ffd5b505191905056fea264697066735822122085740a92e5368461fad1010c567f2e7a14af2e6628179114d39182722751e73964736f6c634300081c0033",
  "linkReferences": {},
  "deployedLinkReferences": {},
  "immutableReferences": {
    "907": [
      {
        "length": 32,
        "start": 462
      },
      {
        "length": 32,
        "start": 1802
      },
      {
        "length": 32,
        "start": 2074
      }
    ],
    "910": [
      {
        "length": 32,
        "start": 695
      },
      {
        "length": 32,
        "start": 1107
      },
      {
        "length": 32,
        "start": 2343
      }
    ]
  },
  "inputSourceName": "project/contracts/StakingContract.sol",
  "buildInfoId": "solc-0_8_28-3880dca9228eb4ec230739ebac4762c4a7593d48"
}